{
  "_format": "hh-sol-artifact-1",
  "contractName": "MyToken",
  "sourceName": "contracts/MyToken.sol",
  "abi": [
    {
      "inputs": [
        {
          "internalType": "string",
          "name": "_name",
          "type": "string"
        },
        {
          "internalType": "string",
          "name": "symbol",
          "type": "string"
        }
      ],
      "stateMutability": "nonpayable",
      "type": "constructor"
    },
    {
      "anonymous": false,
      "inputs": [
        {
          "indexed": true,
          "internalType": "address",
          "name": "owner",
          "type": "address"
        },
        {
          "indexed": true,
          "internalType": "address",
          "name": "spender",
          "type": "address"
        },
        {
          "indexed": false,
          "internalType": "uint256",
          "name": "value",
          "type": "uint256"
        }
      ],
      "name": "Approval",
      "type": "event"
    },
    {
      "anonymous": false,
      "inputs": [
        {
          "indexed": true,
          "internalType": "address",
          "name": "previousOwner",
          "type": "address"
        },
        {
          "indexed": true,
          "internalType": "address",
          "name": "newOwner",
          "type": "address"
        }
      ],
      "name": "OwnershipTransferred",
      "type": "event"
    },
    {
      "anonymous": false,
      "inputs": [
        {
          "indexed": true,
          "internalType": "address",
          "name": "from",
          "type": "address"
        },
        {
          "indexed": true,
          "internalType": "address",
          "name": "to",
          "type": "address"
        },
        {
          "indexed": false,
          "internalType": "uint256",
          "name": "value",
          "type": "uint256"
        }
      ],
      "name": "Transfer",
      "type": "event"
    },
    {
      "inputs": [
        {
          "internalType": "address",
          "name": "",
          "type": "address"
        }
      ],
      "name": "addressTime",
      "outputs": [
        {
          "internalType": "uint256",
          "name": "",
          "type": "uint256"
        }
      ],
      "stateMutability": "view",
      "type": "function"
    },
    {
      "inputs": [
        {
          "internalType": "address",
          "name": "owner",
          "type": "address"
        },
        {
          "internalType": "address",
          "name": "spender",
          "type": "address"
        }
      ],
      "name": "allowance",
      "outputs": [
        {
          "internalType": "uint256",
          "name": "",
          "type": "uint256"
        }
      ],
      "stateMutability": "view",
      "type": "function"
    },
    {
      "inputs": [
        {
          "internalType": "address",
          "name": "spender",
          "type": "address"
        },
        {
          "internalType": "uint256",
          "name": "amount",
          "type": "uint256"
        }
      ],
      "name": "approve",
      "outputs": [
        {
          "internalType": "bool",
          "name": "",
          "type": "bool"
        }
      ],
      "stateMutability": "nonpayable",
      "type": "function"
    },
    {
      "inputs": [
        {
          "internalType": "address",
          "name": "account",
          "type": "address"
        }
      ],
      "name": "balanceOf",
      "outputs": [
        {
          "internalType": "uint256",
          "name": "",
          "type": "uint256"
        }
      ],
      "stateMutability": "view",
      "type": "function"
    },
    {
      "inputs": [
        {
          "internalType": "uint256",
          "name": "_amount",
          "type": "uint256"
        }
      ],
      "name": "buy",
      "outputs": [],
      "stateMutability": "payable",
      "type": "function"
    },
    {
      "inputs": [],
      "name": "decimals",
      "outputs": [
        {
          "internalType": "uint8",
          "name": "",
          "type": "uint8"
        }
      ],
      "stateMutability": "view",
      "type": "function"
    },
    {
      "inputs": [
        {
          "internalType": "address",
          "name": "spender",
          "type": "address"
        },
        {
          "internalType": "uint256",
          "name": "subtractedValue",
          "type": "uint256"
        }
      ],
      "name": "decreaseAllowance",
      "outputs": [
        {
          "internalType": "bool",
          "name": "",
          "type": "bool"
        }
      ],
      "stateMutability": "nonpayable",
      "type": "function"
    },
    {
      "inputs": [],
      "name": "faucet",
      "outputs": [],
      "stateMutability": "nonpayable",
      "type": "function"
    },
    {
      "inputs": [
        {
          "internalType": "address",
          "name": "spender",
          "type": "address"
        },
        {
          "internalType": "uint256",
          "name": "addedValue",
          "type": "uint256"
        }
      ],
      "name": "increaseAllowance",
      "outputs": [
        {
          "internalType": "bool",
          "name": "",
          "type": "bool"
        }
      ],
      "stateMutability": "nonpayable",
      "type": "function"
    },
    {
      "inputs": [
        {
          "internalType": "address",
          "name": "to",
          "type": "address"
        },
        {
          "internalType": "uint256",
          "name": "amount",
          "type": "uint256"
        }
      ],
      "name": "mint",
      "outputs": [],
      "stateMutability": "nonpayable",
      "type": "function"
    },
    {
      "inputs": [],
      "name": "name",
      "outputs": [
        {
          "internalType": "string",
          "name": "",
          "type": "string"
        }
      ],
      "stateMutability": "view",
      "type": "function"
    },
    {
      "inputs": [],
      "name": "owner",
      "outputs": [
        {
          "internalType": "address",
          "name": "",
          "type": "address"
        }
      ],
      "stateMutability": "view",
      "type": "function"
    },
    {
      "inputs": [],
      "name": "renounceOwnership",
      "outputs": [],
      "stateMutability": "nonpayable",
      "type": "function"
    },
    {
      "inputs": [],
      "name": "symbol",
      "outputs": [
        {
          "internalType": "string",
          "name": "",
          "type": "string"
        }
      ],
      "stateMutability": "view",
      "type": "function"
    },
    {
      "inputs": [],
      "name": "totalSupply",
      "outputs": [
        {
          "internalType": "uint256",
          "name": "",
          "type": "uint256"
        }
      ],
      "stateMutability": "view",
      "type": "function"
    },
    {
      "inputs": [
        {
          "internalType": "address",
          "name": "to",
          "type": "address"
        },
        {
          "internalType": "uint256",
          "name": "amount",
          "type": "uint256"
        }
      ],
      "name": "transfer",
      "outputs": [
        {
          "internalType": "bool",
          "name": "",
          "type": "bool"
        }
      ],
      "stateMutability": "nonpayable",
      "type": "function"
    },
    {
      "inputs": [
        {
          "internalType": "address",
          "name": "from",
          "type": "address"
        },
        {
          "internalType": "address",
          "name": "to",
          "type": "address"
        },
        {
          "internalType": "uint256",
          "name": "amount",
          "type": "uint256"
        }
      ],
      "name": "transferFrom",
      "outputs": [
        {
          "internalType": "bool",
          "name": "",
          "type": "bool"
        }
      ],
      "stateMutability": "nonpayable",
      "type": "function"
    },
    {
      "inputs": [
        {
          "internalType": "address",
          "name": "newOwner",
          "type": "address"
        }
      ],
      "name": "transferOwnership",
      "outputs": [],
      "stateMutability": "nonpayable",
      "type": "function"
    },
    {
      "inputs": [],
      "name": "withdraw",
      "outputs": [],
      "stateMutability": "nonpayable",
      "type": "function"
    }
  ],
  "bytecode": "0x6080604052670de0b6b3a76400006006553480156200001d57600080fd5b50604051620025de380380620025de83398181016040528101906200004391906200057a565b818181600390805190602001906200005d9291906200032d565b508060049080519060200190620000769291906200032d565b505050620000996200008d620000de60201b60201c565b620000e660201b60201c565b620000d633620000ae620001ac60201b60201c565b600a620000bc919062000799565b60c8620000ca9190620007ea565b620001b560201b60201c565b5050620009be565b600033905090565b6000600560009054906101000a900473ffffffffffffffffffffffffffffffffffffffff16905081600560006101000a81548173ffffffffffffffffffffffffffffffffffffffff021916908373ffffffffffffffffffffffffffffffffffffffff1602179055508173ffffffffffffffffffffffffffffffffffffffff168173ffffffffffffffffffffffffffffffffffffffff167f8be0079c531659141344cd1fd0a4f28419497f9722a3daafe3b4186f6b6457e060405160405180910390a35050565b60006012905090565b600073ffffffffffffffffffffffffffffffffffffffff168273ffffffffffffffffffffffffffffffffffffffff16141562000228576040517f08c379a00000000000000000000000000000000000000000000000000000000081526004016200021f90620008ac565b60405180910390fd5b6200023c600083836200032360201b60201c565b8060026000828254620002509190620008ce565b92505081905550806000808473ffffffffffffffffffffffffffffffffffffffff1673ffffffffffffffffffffffffffffffffffffffff168152602001908152602001600020600082825401925050819055508173ffffffffffffffffffffffffffffffffffffffff16600073ffffffffffffffffffffffffffffffffffffffff167fddf252ad1be2c89b69c2b068fc378daa952ba7f163c4a11628f55a4df523b3ef836040516200030391906200093c565b60405180910390a36200031f600083836200032860201b60201c565b5050565b505050565b505050565b8280546200033b9062000988565b90600052602060002090601f0160209004810192826200035f5760008555620003ab565b82601f106200037a57805160ff1916838001178555620003ab565b82800160010185558215620003ab579182015b82811115620003aa5782518255916020019190600101906200038d565b5b509050620003ba9190620003be565b5090565b5b80821115620003d9576000816000905550600101620003bf565b5090565b6000604051905090565b600080fd5b600080fd5b600080fd5b600080fd5b6000601f19601f8301169050919050565b7f4e487b7100000000000000000000000000000000000000000000000000000000600052604160045260246000fd5b6200044682620003fb565b810181811067ffffffffffffffff821117156200046857620004676200040c565b5b80604052505050565b60006200047d620003dd565b90506200048b82826200043b565b919050565b600067ffffffffffffffff821115620004ae57620004ad6200040c565b5b620004b982620003fb565b9050602081019050919050565b60005b83811015620004e6578082015181840152602081019050620004c9565b83811115620004f6576000848401525b50505050565b6000620005136200050d8462000490565b62000471565b905082815260208101848484011115620005325762000531620003f6565b5b6200053f848285620004c6565b509392505050565b600082601f8301126200055f576200055e620003f1565b5b815162000571848260208601620004fc565b91505092915050565b60008060408385031215620005945762000593620003e7565b5b600083015167ffffffffffffffff811115620005b557620005b4620003ec565b5b620005c38582860162000547565b925050602083015167ffffffffffffffff811115620005e757620005e6620003ec565b5b620005f58582860162000547565b9150509250929050565b7f4e487b7100000000000000000000000000000000000000000000000000000000600052601160045260246000fd5b60008160011c9050919050565b6000808291508390505b60018511156200068d57808604811115620006655762000664620005ff565b5b6001851615620006755780820291505b808102905062000685856200062e565b945062000645565b94509492505050565b600082620006a857600190506200077b565b81620006b857600090506200077b565b8160018114620006d15760028114620006dc5762000712565b60019150506200077b565b60ff841115620006f157620006f0620005ff565b5b8360020a9150848211156200070b576200070a620005ff565b5b506200077b565b5060208310610133831016604e8410600b84101617156200074c5782820a905083811115620007465762000745620005ff565b5b6200077b565b6200075b84848460016200063b565b92509050818404811115620007755762000774620005ff565b5b81810290505b9392505050565b6000819050919050565b600060ff82169050919050565b6000620007a68262000782565b9150620007b3836200078c565b9250620007e27fffffffffffffffffffffffffffffffffffffffffffffffffffffffffffffffff848462000696565b905092915050565b6000620007f78262000782565b9150620008048362000782565b9250817fffffffffffffffffffffffffffffffffffffffffffffffffffffffffffffffff048311821515161562000840576200083f620005ff565b5b828202905092915050565b600082825260208201905092915050565b7f45524332303a206d696e7420746f20746865207a65726f206164647265737300600082015250565b600062000894601f836200084b565b9150620008a1826200085c565b602082019050919050565b60006020820190508181036000830152620008c78162000885565b9050919050565b6000620008db8262000782565b9150620008e88362000782565b9250827fffffffffffffffffffffffffffffffffffffffffffffffffffffffffffffffff0382111562000920576200091f620005ff565b5b828201905092915050565b620009368162000782565b82525050565b60006020820190506200095360008301846200092b565b92915050565b7f4e487b7100000000000000000000000000000000000000000000000000000000600052602260045260246000fd5b60006002820490506001821680620009a157607f821691505b60208210811415620009b857620009b762000959565b5b50919050565b611c1080620009ce6000396000f3fe6080604052600436106101145760003560e01c8063715018a6116100a0578063d96a094a11610064578063d96a094a146103b5578063dd62ed3e146103d1578063de5f72fd1461040e578063f179b66d14610425578063f2fde38b1461046257610114565b8063715018a6146102ce5780638da5cb5b146102e557806395d89b4114610310578063a457c2d71461033b578063a9059cbb1461037857610114565b8063313ce567116100e7578063313ce567146101e957806339509351146102145780633ccfd60b1461025157806340c10f191461026857806370a082311461029157610114565b806306fdde0314610119578063095ea7b31461014457806318160ddd1461018157806323b872dd146101ac575b600080fd5b34801561012557600080fd5b5061012e61048b565b60405161013b9190611231565b60405180910390f35b34801561015057600080fd5b5061016b600480360381019061016691906112ec565b61051d565b6040516101789190611347565b60405180910390f35b34801561018d57600080fd5b50610196610540565b6040516101a39190611371565b60405180910390f35b3480156101b857600080fd5b506101d360048036038101906101ce919061138c565b61054a565b6040516101e09190611347565b60405180910390f35b3480156101f557600080fd5b506101fe610579565b60405161020b91906113fb565b60405180910390f35b34801561022057600080fd5b5061023b600480360381019061023691906112ec565b610582565b6040516102489190611347565b60405180910390f35b34801561025d57600080fd5b506102666105b9565b005b34801561027457600080fd5b5061028f600480360381019061028a91906112ec565b61060a565b005b34801561029d57600080fd5b506102b860048036038101906102b39190611416565b610618565b6040516102c59190611371565b60405180910390f35b3480156102da57600080fd5b506102e3610660565b005b3480156102f157600080fd5b506102fa610674565b6040516103079190611452565b60405180910390f35b34801561031c57600080fd5b5061032561069e565b6040516103329190611231565b60405180910390f35b34801561034757600080fd5b50610362600480360381019061035d91906112ec565b610730565b60405161036f9190611347565b60405180910390f35b34801561038457600080fd5b5061039f600480360381019061039a91906112ec565b6107a7565b6040516103ac9190611347565b60405180910390f35b6103cf60048036038101906103ca919061146d565b6107ca565b005b3480156103dd57600080fd5b506103f860048036038101906103f3919061149a565b61081a565b6040516104059190611371565b60405180910390f35b34801561041a57600080fd5b506104236108a1565b005b34801561043157600080fd5b5061044c60048036038101906104479190611416565b610980565b6040516104599190611371565b60405180910390f35b34801561046e57600080fd5b5061048960048036038101906104849190611416565b610998565b005b60606003805461049a90611509565b80601f01602080910402602001604051908101604052809291908181526020018280546104c690611509565b80156105135780601f106104e857610100808354040283529160200191610513565b820191906000526020600020905b8154815290600101906020018083116104f657829003601f168201915b5050505050905090565b600080610528610a1c565b9050610535818585610a24565b600191505092915050565b6000600254905090565b600080610555610a1c565b9050610562858285610bef565b61056d858585610c7b565b60019150509392505050565b60006012905090565b60008061058d610a1c565b90506105ae81858561059f858961081a565b6105a9919061156a565b610a24565b600191505092915050565b6105c1610ef3565b3373ffffffffffffffffffffffffffffffffffffffff166108fc479081150290604051600060405180830381858888f19350505050158015610607573d6000803e3d6000fd5b50565b6106148282610f71565b5050565b60008060008373ffffffffffffffffffffffffffffffffffffffff1673ffffffffffffffffffffffffffffffffffffffff168152602001908152602001600020549050919050565b610668610ef3565b61067260006110c8565b565b6000600560009054906101000a900473ffffffffffffffffffffffffffffffffffffffff16905090565b6060600480546106ad90611509565b80601f01602080910402602001604051908101604052809291908181526020018280546106d990611509565b80156107265780601f106106fb57610100808354040283529160200191610726565b820191906000526020600020905b81548152906001019060200180831161070957829003601f168201915b5050505050905090565b60008061073b610a1c565b90506000610749828661081a565b90508381101561078e576040517f08c379a000000000000000000000000000000000000000000000000000000000815260040161078590611632565b60405180910390fd5b61079b8286868403610a24565b60019250505092915050565b6000806107b2610a1c565b90506107bf818585610c7b565b600191505092915050565b6000341161080d576040517f08c379a00000000000000000000000000000000000000000000000000000000081526004016108049061169e565b60405180910390fd5b6108173382610f71565b50565b6000600160008473ffffffffffffffffffffffffffffffffffffffff1673ffffffffffffffffffffffffffffffffffffffff16815260200190815260200160002060008373ffffffffffffffffffffffffffffffffffffffff1673ffffffffffffffffffffffffffffffffffffffff16815260200190815260200160002054905092915050565b42600760003373ffffffffffffffffffffffffffffffffffffffff1673ffffffffffffffffffffffffffffffffffffffff1681526020019081526020016000205410610922576040517f08c379a00000000000000000000000000000000000000000000000000000000081526004016109199061170a565b60405180910390fd5b61092e33600654610f71565b603c4261093b919061156a565b600760003373ffffffffffffffffffffffffffffffffffffffff1673ffffffffffffffffffffffffffffffffffffffff16815260200190815260200160002081905550565b60076020528060005260406000206000915090505481565b6109a0610ef3565b600073ffffffffffffffffffffffffffffffffffffffff168173ffffffffffffffffffffffffffffffffffffffff161415610a10576040517f08c379a0000000000000000000000000000000000000000000000000000000008152600401610a079061179c565b60405180910390fd5b610a19816110c8565b50565b600033905090565b600073ffffffffffffffffffffffffffffffffffffffff168373ffffffffffffffffffffffffffffffffffffffff161415610a94576040517f08c379a0000000000000000000000000000000000000000000000000000000008152600401610a8b9061182e565b60405180910390fd5b600073ffffffffffffffffffffffffffffffffffffffff168273ffffffffffffffffffffffffffffffffffffffff161415610b04576040517f08c379a0000000000000000000000000000000000000000000000000000000008152600401610afb906118c0565b60405180910390fd5b80600160008573ffffffffffffffffffffffffffffffffffffffff1673ffffffffffffffffffffffffffffffffffffffff16815260200190815260200160002060008473ffffffffffffffffffffffffffffffffffffffff1673ffffffffffffffffffffffffffffffffffffffff168152602001908152602001600020819055508173ffffffffffffffffffffffffffffffffffffffff168373ffffffffffffffffffffffffffffffffffffffff167f8c5be1e5ebec7d5bd14f71427d1e84f3dd0314c0f7b2291e5b200ac8c7c3b92583604051610be29190611371565b60405180910390a3505050565b6000610bfb848461081a565b90507fffffffffffffffffffffffffffffffffffffffffffffffffffffffffffffffff8114610c755781811015610c67576040517f08c379a0000000000000000000000000000000000000000000000000000000008152600401610c5e9061192c565b60405180910390fd5b610c748484848403610a24565b5b50505050565b600073ffffffffffffffffffffffffffffffffffffffff168373ffffffffffffffffffffffffffffffffffffffff161415610ceb576040517f08c379a0000000000000000000000000000000000000000000000000000000008152600401610ce2906119be565b60405180910390fd5b600073ffffffffffffffffffffffffffffffffffffffff168273ffffffffffffffffffffffffffffffffffffffff161415610d5b576040517f08c379a0000000000000000000000000000000000000000000000000000000008152600401610d5290611a50565b60405180910390fd5b610d6683838361118e565b60008060008573ffffffffffffffffffffffffffffffffffffffff1673ffffffffffffffffffffffffffffffffffffffff16815260200190815260200160002054905081811015610dec576040517f08c379a0000000000000000000000000000000000000000000000000000000008152600401610de390611ae2565b60405180910390fd5b8181036000808673ffffffffffffffffffffffffffffffffffffffff1673ffffffffffffffffffffffffffffffffffffffff16815260200190815260200160002081905550816000808573ffffffffffffffffffffffffffffffffffffffff1673ffffffffffffffffffffffffffffffffffffffff168152602001908152602001600020600082825401925050819055508273ffffffffffffffffffffffffffffffffffffffff168473ffffffffffffffffffffffffffffffffffffffff167fddf252ad1be2c89b69c2b068fc378daa952ba7f163c4a11628f55a4df523b3ef84604051610eda9190611371565b60405180910390a3610eed848484611193565b50505050565b610efb610a1c565b73ffffffffffffffffffffffffffffffffffffffff16610f19610674565b73ffffffffffffffffffffffffffffffffffffffff1614610f6f576040517f08c379a0000000000000000000000000000000000000000000000000000000008152600401610f6690611b4e565b60405180910390fd5b565b600073ffffffffffffffffffffffffffffffffffffffff168273ffffffffffffffffffffffffffffffffffffffff161415610fe1576040517f08c379a0000000000000000000000000000000000000000000000000000000008152600401610fd890611bba565b60405180910390fd5b610fed6000838361118e565b8060026000828254610fff919061156a565b92505081905550806000808473ffffffffffffffffffffffffffffffffffffffff1673ffffffffffffffffffffffffffffffffffffffff168152602001908152602001600020600082825401925050819055508173ffffffffffffffffffffffffffffffffffffffff16600073ffffffffffffffffffffffffffffffffffffffff167fddf252ad1be2c89b69c2b068fc378daa952ba7f163c4a11628f55a4df523b3ef836040516110b09190611371565b60405180910390a36110c460008383611193565b5050565b6000600560009054906101000a900473ffffffffffffffffffffffffffffffffffffffff16905081600560006101000a81548173ffffffffffffffffffffffffffffffffffffffff021916908373ffffffffffffffffffffffffffffffffffffffff1602179055508173ffffffffffffffffffffffffffffffffffffffff168173ffffffffffffffffffffffffffffffffffffffff167f8be0079c531659141344cd1fd0a4f28419497f9722a3daafe3b4186f6b6457e060405160405180910390a35050565b505050565b505050565b600081519050919050565b600082825260208201905092915050565b60005b838110156111d25780820151818401526020810190506111b7565b838111156111e1576000848401525b50505050565b6000601f19601f8301169050919050565b600061120382611198565b61120d81856111a3565b935061121d8185602086016111b4565b611226816111e7565b840191505092915050565b6000602082019050818103600083015261124b81846111f8565b905092915050565b600080fd5b600073ffffffffffffffffffffffffffffffffffffffff82169050919050565b600061128382611258565b9050919050565b61129381611278565b811461129e57600080fd5b50565b6000813590506112b08161128a565b92915050565b6000819050919050565b6112c9816112b6565b81146112d457600080fd5b50565b6000813590506112e6816112c0565b92915050565b6000806040838503121561130357611302611253565b5b6000611311858286016112a1565b9250506020611322858286016112d7565b9150509250929050565b60008115159050919050565b6113418161132c565b82525050565b600060208201905061135c6000830184611338565b92915050565b61136b816112b6565b82525050565b60006020820190506113866000830184611362565b92915050565b6000806000606084860312156113a5576113a4611253565b5b60006113b3868287016112a1565b93505060206113c4868287016112a1565b92505060406113d5868287016112d7565b9150509250925092565b600060ff82169050919050565b6113f5816113df565b82525050565b600060208201905061141060008301846113ec565b92915050565b60006020828403121561142c5761142b611253565b5b600061143a848285016112a1565b91505092915050565b61144c81611278565b82525050565b60006020820190506114676000830184611443565b92915050565b60006020828403121561148357611482611253565b5b6000611491848285016112d7565b91505092915050565b600080604083850312156114b1576114b0611253565b5b60006114bf858286016112a1565b92505060206114d0858286016112a1565b9150509250929050565b7f4e487b7100000000000000000000000000000000000000000000000000000000600052602260045260246000fd5b6000600282049050600182168061152157607f821691505b60208210811415611535576115346114da565b5b50919050565b7f4e487b7100000000000000000000000000000000000000000000000000000000600052601160045260246000fd5b6000611575826112b6565b9150611580836112b6565b9250827fffffffffffffffffffffffffffffffffffffffffffffffffffffffffffffffff038211156115b5576115b461153b565b5b828201905092915050565b7f45524332303a2064656372656173656420616c6c6f77616e63652062656c6f7760008201527f207a65726f000000000000000000000000000000000000000000000000000000602082015250565b600061161c6025836111a3565b9150611627826115c0565b604082019050919050565b6000602082019050818103600083015261164b8161160f565b9050919050565b7f73656e64206d6f6e657900000000000000000000000000000000000000000000600082015250565b6000611688600a836111a3565b915061169382611652565b602082019050919050565b600060208201905081810360008301526116b78161167b565b9050919050565b7f6e65656420746f2077616974206d6f72652074696d6500000000000000000000600082015250565b60006116f46016836111a3565b91506116ff826116be565b602082019050919050565b60006020820190508181036000830152611723816116e7565b9050919050565b7f4f776e61626c653a206e6577206f776e657220697320746865207a65726f206160008201527f6464726573730000000000000000000000000000000000000000000000000000602082015250565b60006117866026836111a3565b91506117918261172a565b604082019050919050565b600060208201905081810360008301526117b581611779565b9050919050565b7f45524332303a20617070726f76652066726f6d20746865207a65726f2061646460008201527f7265737300000000000000000000000000000000000000000000000000000000602082015250565b60006118186024836111a3565b9150611823826117bc565b604082019050919050565b600060208201905081810360008301526118478161180b565b9050919050565b7f45524332303a20617070726f766520746f20746865207a65726f20616464726560008201527f7373000000000000000000000000000000000000000000000000000000000000602082015250565b60006118aa6022836111a3565b91506118b58261184e565b604082019050919050565b600060208201905081810360008301526118d98161189d565b9050919050565b7f45524332303a20696e73756666696369656e7420616c6c6f77616e6365000000600082015250565b6000611916601d836111a3565b9150611921826118e0565b602082019050919050565b6000602082019050818103600083015261194581611909565b9050919050565b7f45524332303a207472616e736665722066726f6d20746865207a65726f20616460008201527f6472657373000000000000000000000000000000000000000000000000000000602082015250565b60006119a86025836111a3565b91506119b38261194c565b604082019050919050565b600060208201905081810360008301526119d78161199b565b9050919050565b7f45524332303a207472616e7366657220746f20746865207a65726f206164647260008201527f6573730000000000000000000000000000000000000000000000000000000000602082015250565b6000611a3a6023836111a3565b9150611a45826119de565b604082019050919050565b60006020820190508181036000830152611a6981611a2d565b9050919050565b7f45524332303a207472616e7366657220616d6f756e742065786365656473206260008201527f616c616e63650000000000000000000000000000000000000000000000000000602082015250565b6000611acc6026836111a3565b9150611ad782611a70565b604082019050919050565b60006020820190508181036000830152611afb81611abf565b9050919050565b7f4f776e61626c653a2063616c6c6572206973206e6f7420746865206f776e6572600082015250565b6000611b386020836111a3565b9150611b4382611b02565b602082019050919050565b60006020820190508181036000830152611b6781611b2b565b9050919050565b7f45524332303a206d696e7420746f20746865207a65726f206164647265737300600082015250565b6000611ba4601f836111a3565b9150611baf82611b6e565b602082019050919050565b60006020820190508181036000830152611bd381611b97565b905091905056fea264697066735822122026735b80ff45ca0fbed321a280dc698444f28e46fbe7a7fd929ccd524b2c65df64736f6c634300080a0033",
  "linkReferences": {},
  "deployedLinkReferences": {}
}